:100000000EC079C08DC026C025C0BDC023C022C08F
:1000100021C020C01FC01EC085C01CC01BC0112431
:100020001FBECFE5D2E0DEBFCDBF11E0A0E6B0E05D
:10003000E4E5F6E002C005900D92A230B107D9F7D1
:1000400021E0A2E0B1E001C01D92A233B207E1F7C6
:100050008AD1FEC266C0A895F89414BE91B5986185
:1000600091BD813031F0823031F082E481BD7894ED
:10007000089583E4FBCF87E4F9CFA895F89414BEE4
:1000800081B5886181BD11BC7894089585B7877E5C
:10009000806185BFF89485B7806285BF85B7846825
:1000A00085BF8B7F85BF7894889585B78F7D85BF09
:1000B0000895CF93DF93682F70E077707860660FB4
:1000C000771FE8F76050704040E250E087E091E031
:1000D0008ED2C7E0D1E089918C3030F464E670E0D4
:1000E000E3D084E690E0B9D081E0C732D80799F731
:1000F000DF91CF9108951F921FB61F9211248F9305
:1001000080910401811107C01092030180912701A1
:100110008F5F809327018F911F901FBE1F901895AE
:10012000189518958F938FB78F93809103018460F2
:10013000809303018F918FBF8F9118958AB5806846
:100140008ABD8AB58F7B8ABD089582E089BF83E02E
:100150008ABD81E083BF12BE19BCB89A10922D01EE
:1001600010922C0110922B0110922A011092290159
:100170001092280110922E0110922F01109230013E
:100180001092310108951F921FB61F9211242F93D0
:100190003F938F939F93AF93BF93EF93FF932091E0
:1001A0002D0180912A0190912B01820F911D909336
:1001B0002B0180932A01E0912A01F0912B013496C2
:1001C000E87FE460F695E795E8F7EF77F0E0EE5723
:1001D000FF4F908180912C018030D9F080912C01CB
:1001E0002091280130912901280F311D30932901D8
:1001F00020932801E0912801F09129013496E87FAD
:10020000E460F695E795E8F7EF77F0E0EE57FF4FFB
:100210008081980F86958695981B99BD80912E01B7
:1002200090912F01A0913001B09131010196A11D53
:10023000B11D80932E0190932F01A0933001B093B4
:100240003101FF91EF91BF91AF919F918F913F91BC
:100250002F911F901FBE1F9018959C0110922E0188
:1002600010922F01109230011092310195B7977EB4
:1002700095BFC9016FE070E08ED19C0140912E01C5
:1002800050912F0160913001709131012417350791
:100290001606170608F4089595B7906295BF8895DD
:1002A00095B79F7D95BFEACFCF93DF93EB011BBE40
:1002B0008C30F8F4E82FF0E0EE0FFF1FE659FF4F07
:1002C000808180932D01818180932C0137DFCE01C5
:1002D000C4DF8AB58F778ABD8AB58F7B8ABDC09807
:1002E00010922D0110922C0180E68BBFDF91CF91EF
:1002F0000895863F31F481E480932D0110922C0102
:10030000E5CF833F11F480E2F7CF853FB1F482E27D
:1003100080932D0110922C0111DFCE0163E070E07B
:100320004BD1EB01CB0199DF8BE280932D01CE0104
:1003300094DF83E380932D01CACF843F51F683E39A
:1003400080932D0110922C01F9DECE0163E070E064
:1003500033D1EB01CB0181DF8BE280932D01CE0104
:100360007CDF82E2E7CF90E896BD16BC88B386605A
:1003700088BB8BE080BD98B983E085BF80E68BBFEA
:1003800086E085BB789481E066DE80DE76DEDDDEA9
:100390001092020181E080930401109203011092F7
:1003A00006011092050140E250E06FEF70E087E037
:1003B00091E016D101E0CFEF13E086B3982F927051
:1003C0008695817080930401801709F4BBC0911158
:1003D00023C0809103018160809303011092270163
:1003E00080E039DE53DE009104018091030180FF3B
:1003F000B3C082E030DE4ADE8091030182FFDDCFB0
:1004000091E0909302018A7F82608093030168ECFF
:1004100070E083EF49DFD1CF109203018091270173
:10042000982F91509A3018F0C0932701D9CF9AE0B5
:10043000981B9093270181E00EDE28DE1EDE80915E
:1004400002018130D8F464E670E0809127012CDF4E
:1004500080910601803238F6E82FF0E0EE5FFE4F23
:100460009091270195838F5F8093060140E250E0D1
:1004700060EE70E087E091E0CAD0B5CFF1F4E09192
:10048000270164E670E08AE0E13029F0E23039F4D7
:1004900064E670E08BE008DF10920201A4CF87E0F1
:1004A000E33049F0FE2FFF0FFF0BE05AFF4F808132
:1004B000883008F098CFFDDD96CF8230C1F4E0910E
:1004C0002701FE2FFF0FFF0BE05AFF4F808187FDB2
:1004D000E3CF809305011092060140E250E06FEFF8
:1004E00070E087E091E07CD0109302017CCF8330F4
:1004F00009F079CF809106018032B0F010920201AC
:1005000060E273E084EFD0DE60910501683008F0AE
:100510006ACF70E077707860660F771FE8F76050F9
:10052000704040E250E0A6CFE82FF0E0EE5FFE4FD3
:100530009091270195838F5F8093060164E670E0B8
:1005400083EFE1CF903009F44ECF10920201109268
:100550000301C093270147CF81FF11C082E07BDDFB
:1005600095DD8091030182FF28CF92E090930201F4
:10057000897F8093030168EC70E085EF4BCF85B7EE
:10058000877E806185BF85B7806285BF889585B786
:100590008F7D85BF12CF0024552704C0080E591F38
:1005A000880F991F009729F076956795B8F3710524
:1005B000B9F7802D952F0895AA1BBB1B51E107C0E9
:1005C000AA1FBB1FA617B70710F0A61BB70B881FE3
:1005D000991F5A95A9F780959095BC01CD01089572
:1005E000DC0101C06D9341505040E0F70895DC01FB
:1005F000CB01FC01E199FECF06C0FFBBEEBBE09A48
:1006000031960DB20D9241505040B8F70895DC017B
:10061000A40FB51F4150504040F0CB01840F951FEF
:100620002E9105D041505040D8F70895262FE199DA
:10063000FECF9FBB8EBBE09A01970DB2021639F038
:100640001CBA2DBB0FB6F894E29AE19A0FBE08953A
:04065000F894FFCF4C
:1006540000FFFFFF010203040506573D4F2D572DF0
:10066400602D4F32573260324F37573760374F3D26
:10067400603D404346494C4F5255585B5E6063664B
:10068400686A6D6F7173757678797B7C7D7E7E7F09
:100694007F7F7F7F7F7F7E7E7D7C7B79787675739D
:1006A400716F6D6A686663605E5B5855524F4C4962
:1006B4004643403C393633302D2A2724211F1C1948
:1006C400171512100E0C0A09070604030201010093
:1006D40000000000000001010203040607090A0CDF
:1006E4000E10121517191C1F2124272A2D303336FA
:0206F400393C8F
:00000001FF
